:100000000C942A000C944A100C9473100C949C10BD
:100010000C944A120C9473120C9418150C94CF1172
:100020000C94F8110C9421120C947D110C94A611CF
:100030000C9447000C94BE170C9411180C94E817FC
:100040000C94AD0D0C9447000C9447000C944700A1
:100050000C94470011241FBECFE5D8E0DEBFCDBF12
:1000600014E0A0E6B0E0E4E2FDE302C005900D92EA
:10007000AA30B107D9F714E0AAE0B4E001C01D929C
:10008000AA32B107E1F70E94531A0C94901E0C9407
:100090000000EF92FF920F93DF93CF93CDB7DEB7BF
:1000A00060970FB6F894DEBF0FBECDBFA82F002318
:1000B00009F461C07E010894E11CF11C88E0F7019D
:1000C00011928A95E9F729833A834B835C836D8388
:1000D0007E83AF83988780E2801BE82FFF27E7FDB0
:1000E000F09549815A816B817C81181684F01986BC
:1000F0001A861B861C86882799278E1B9F0B04C097
:10010000440F551F661F771F8A95D2F728C0202FEE
:10011000332727FD3095DB01CA01022E04C0880F6A
:10012000991FAA1FBB1F0A94D2F789879A87AB87AA
:10013000BC8704C07695679557954795EA95D2F7A1
:100140008D819E81AF81B88504C0880F991FAA1F39
:10015000BB1F2A95D2F7482B592B6A2B7B2B4D8737
:100160005E876F87788B29853A854B855C856D85A1
:100170007E85AF8598898A2F60960FB6F894DEBF8A
:100180000FBECDBFCF91DF910F91FF90EF900895FB
:10019000AEE5B0E0EEECF0E00C94501EA8E04E01AD
:1001A0000894811C911CF4016A2E11926A94E9F75B
:1001B00029833A834B835C836D837E838F83988707
:1001C000CE010996FC011192AA95E9F7A986BA8693
:1001D000CB86DC86ED86FE860F87188B29843A84D1
:1001E0004B845C84ED84FE840F85188969807A8055
:1001F0008B809C806DA67EA68FA698AA6D807E803F
:100200008F809884E114F1040105110509F0B3C34E
:10021000621473048404950408F03DC100E02016C4
:1002200000E0300601E0400600E0500688F41FEFD1
:10023000211631044104510439F030F048E0E42E35
:10024000F12C012D112D18C0EE24FF24870114C0BC
:1002500020E0221620E0320620E0420621E052068D
:1002600030F038E1E32EF12C012D112D05C020E1F5
:10027000E22EF12C012D112DD201C1010E2C04C052
:10028000B695A795979587950A94D2F780509D4F7C
:10029000DC012C9180E290E0A0E0B0E08E199F0993
:1002A000A00BB10B7C018D01E21AF10801091109C3
:1002B000E114F10401051105A1F10E2C04C0220C7A
:1002C000331C441C551C0A94D2F7A40193010E2C34
:1002D00004C0220F331F441F551F0A94D2F780E237
:1002E00090E08E199F096DA47EA48FA498A804C0E5
:1002F00096948794779467948A95D2F7622A732AA2
:10030000842A952AADA4BEA4CFA4D8A804C0AA0C60
:10031000BB1CCC1CDD1CEA94D2F7ADA6BEA6CFA6B2
:10032000D8AA6201EE24FF24CDAADEAAEFAAF8AE75
:10033000920181012070307009AF1AAF2BAF3CAF32
:10034000C401B301A70196010E942E1E7B018C01FE
:10035000C401B3012DA93EA94FA958AD0E942E1E7C
:10036000C901DA013C014D01C401B30129AD3AAD27
:100370004BAD5CAD0E940F1E9B01AC018701FF24B9
:10038000EE24ADA4BEA4CFA4D8A8C601AA27BB273B
:1003900057016801A82AB92ACA2ADB2AA216B3067D
:1003A000C406D506E0F40894610871088108910834
:1003B000A20CB31CC41CD51CA214B304C404D504E1
:1003C00070F0A216B306C406D50648F40894610876
:1003D000710881089108A20CB31CC41CD51CA21A78
:1003E000B30AC40AD50AC601B5012DA93EA94FA971
:1003F00058AD0E942E1E7B018C01C601B5012DA9AE
:100400003EA94FA958AD0E942E1EC901DA015C0118
:100410006D01C601B50129AD3AAD4BAD5CAD0E9491
:100420000F1E9B01AC018701FF24EE248DA59EA524
:10043000AFA5B8A9A070B070E82AF92A0A2B1B2B27
:10044000E216F30604071507C0F40894A108B108E2
:10045000C108D108E20CF31C041D151DE214F304BD
:100460000405150550F0E216F3060407150728F4F5
:100470000894A108B108C108D108D3019927882799
:1004800086017501E82AF92A0A2B1B2BE9AAFAAA88
:100490000BAB1CABCFC4211431044104510471F4E3
:1004A00061E070E080E090E020E030E040E050E08B
:1004B0000E942E1EC901DA011C012D0100E0201648
:1004C00000E0300601E0400600E0500688F41FEF2F
:1004D000211631044104510431F028F048E050E085
:1004E00060E070E017C040E050E060E070E012C0F3
:1004F00020E0221620E0320620E0420621E05206EB
:1005000028F048E150E060E070E004C040E150E0D5
:1005100060E070E0D201C101042E04C0B695A79539
:10052000979587950A94D2F780509D4FDC012C91C6
:10053000E0E2EE2EF12C012D112DD801C701841B14
:10054000950BA60BB70B821B9109A109B109009766
:10055000A105B10561F464015301A218B308C408F0
:10056000D50831E0632E712C812C912C1EC16F9621
:100570008FAF6F97082E04C0220C331C441C551CEF
:100580000A94D2F7EE2DE81B640153010E2E04C02D
:10059000D694C794B794A7940A94D2F7A401930170
:1005A0006F960FAC6F9704C0220F331F441F551F67
:1005B0000A94D2F76DA47EA48FA498A80E2E04C02E
:1005C00096948794779467940A94D2F78401730180
:1005D000E22AF32A042B152BE9A6FAA60BA71CA7DF
:1005E0003201882499249201810120703070219673
:1005F0000CAF1DAF2EAF3FAF2197C601B501A401CF
:1006000093010E942E1E7B018C01C601B501A4013D
:1006100093010E942E1EC901DA0125968CAF9DAF71
:10062000AEAFBFAF2597BC01CD0121962CAD3DAD3E
:100630004EAD5FAD21970E940F1E9B01AC0187015B
:10064000FF24EE24A9A4BAA4CBA4DCA4C601AA2743
:10065000BB275C016D01AE28BF28C02AD12AA21693
:10066000B306C406D50660F525966CAD7DAD8EAD9E
:100670009FAD2597615070408040904025966CAFAB
:100680007DAF8EAF9FAF2597A20CB31CC41CD51CA9
:10069000A214B304C404D50498F0A216B306C40689
:1006A000D50670F4615070408040904025966CAF44
:1006B0007DAF8EAF9FAF2597A20CB31CC41CD51C79
:1006C000A21AB30AC40AD50AC601B501A40193014E
:1006D0000E942E1E7B018C01C601B501A40193016D
:1006E0000E942E1EC901DA013C014D01C401B30173
:1006F00021962CAD3DAD4EAD5FAD21970E940F1EF2
:100700009B01AC018701FF24EE2489A59AA5ABA526
:10071000BCA5A070B07057016801A82AB92ACA2ADE
:10072000DB2AA216B306C406D506E0F408946108D5
:10073000710881089108A20CB31CC41CD51CA2141A
:10074000B304C404D50470F0A216B306C406D506DB
:1007500048F408946108710881089108A20CB31C40
:10076000C41CD51C8DA59EA5AFA5B8A96F960FACCE
:100770006F9704C0880F991FAA1FBB1F0A94D2F756
:100780008DA79EA7AFA7B8ABA21AB30AC40AD50A11
:100790002596ECACFDAC0EAD1FAD2597D701992782
:1007A0008827682A792A8A2A9B2A820122273327C6
:1007B00029960CAF1DAF2EAF3FAF2997A201910133
:1007C000407050702D962CAF3DAF4EAF5FAF2D9760
:1007D000C601B50129962CAD3DAD4EAD5FAD299753
:1007E0000E942E1E7B018C01C601B50129962CADFD
:1007F0003DAD4EAD5FAD29970E942E1EC901DA01B5
:1008000061968CAF9DAFAEAFBFAF6197BC01CD011C
:100810002D962CAD3DAD4EAD5FAD2D970E940F1EB8
:100820009B01AC018701FF24EE24ADA4BEA4CFA49C
:10083000D8A8C601AA27BB2757016801A82AB92A48
:10084000CA2ADB2AA216B306C406D50660F561964D
:100850006CAD7DAD8EAD9FAD6197615070408040B5
:10086000904061966CAF7DAF8EAF9FAF6197A20C49
:10087000B31CC41CD51CA214B304C404D50498F042
:10088000A216B306C406D50670F4615070408040CD
:10089000904061966CAF7DAF8EAF9FAF6197A20C19
:1008A000B31CC41CD51CA21AB30AC40AD50AC601BB
:1008B000B50129962CAD3DAD4EAD5FAD29970E9497
:1008C0002E1E7B018C01C601B50129962CAD3DADD4
:1008D0004EAD5FAD29970E942E1EC901DA015C0161
:1008E0006D01C601B5012D962CAD3DAD4EAD5FAD90
:1008F0002D970E940F1E9B01AC018701FF24EE245F
:100900008DA59EA5AFA5B8A9A070B070E82AF92A58
:100910000A2B1B2BE216F30604071507C0F40894F4
:10092000A108B108C108D108E20CF31C041D151D73
:10093000E214F3040405150550F0E216F30604076B
:10094000150728F40894A108B108C108D1086196D8
:10095000ECACFDAC0EAD1FAD6197D7019927882790
:1009600096018501082B192B2A2B3B2B09AB1AABBF
:100970002BAB3CAB62C26E147F048006910608F478
:1009800051C220E0E21620E0F20621E0020720E05A
:10099000120788F43FEFE316F1040105110531F069
:1009A00028F048E050E060E070E017C040E050E020
:1009B00060E070E012C040E0E41640E0F40640E081
:1009C000040741E0140728F048E150E060E070E0DF
:1009D00004C040E150E060E070E0D801C701042E9F
:1009E00004C0B695A795979587950A94D2F780503D
:1009F0009D4FDC012C9130E2A32EB12CC12CD12CC7
:100A0000D601C501841B950BA60BB70B821B910960
:100A1000A109B1090097A105B10589F4E614F7040D
:100A20000805190508F4F2C16DA47EA48FA498A846
:100A3000621473048404950408F0E8C1F3C16E964F
:100A40008FAF6E97082E04C0EE0CFF1C001F111F05
:100A50000A94D2F76A2D681BD201C101062E04C088
:100A6000B695A795979587950A94D2F75C016D0185
:100A7000AE28BF28C02AD12AADA2BEA2CFA2D8A636
:100A8000720161016E960FAC6E9704C0CC0CDD1C38
:100A9000EE1CFF1C0A94D2F7C9A2DAA2EBA2FCA2B8
:100AA00064015301062E04C0D694C794B794A7944A
:100AB0000A94D2F7D401C3016E960FAC6E9704C0AE
:100AC000880F991FAA1FBB1F0A94D2F7EDA4FEA49A
:100AD0000FA518A904C016950795F794E7946A9591
:100AE000D2F737014801682A792A8A2A9B2A6D8E13
:100AF0007E8E8F8E98A2EDA0FEA00FA118A53801C2
:100B000088249924980187012070307065960CAF75
:100B10001DAF2EAF3FAF6597C601B501A40193018C
:100B20000E942E1E7B018C01C601B501A401930118
:100B30000E942E1EC901DA011C012D01C201B10162
:100B400065962CAD3DAD4EAD5FAD65970E940F1E15
:100B50009B01AC018701FF24EE24AD8CBE8CCF8CB1
:100B6000D8A0C601AA27BB2757016801A82AB92A1D
:100B7000CA2ADB2AA216B306C406D50600F50894D5
:100B80002108310841085108EDA0FEA00FA118A5C9
:100B9000AE0CBF1CC01ED11EAE14BF04C006D106D1
:100BA00070F0A216B306C406D50648F408942108CE
:100BB000310841085108AE0CBF1CC01ED11EA21A3C
:100BC000B30AC40AD50AC601B501A40193010E9463
:100BD0002E1E7B018C01C601B501A40193010E9468
:100BE0002E1EC901DA013C014D01C401B301659615
:100BF0002CAD3DAD4EAD5FAD65970E940F1E9B01C4
:100C0000AC018701FF24EE248D8D9E8DAF8DB8A1A0
:100C1000A070B07057016801A82AB92ACA2ADB2A35
:100C2000A216B306C406D50600F50894610871083B
:100C3000810891086DA17EA18FA198A5A60EB71E6F
:100C4000C81ED91EA616B706C806D90670F0A21689
:100C5000B306C406D50648F40894610871088108F3
:100C60009108A60EB71EC81ED91ED601C501821B4B
:100C7000930BA40BB50B898F9A8FAB8FBC8FD101CF
:100C80009927882764015301A82AB92ACA2ADB2A8E
:100C9000A9AABAAACBAADCAA860175012FEF3FEF59
:100CA00040E050E0E222F32204231523A601662748
:100CB00077276D964CAF5DAF6EAF7FAF6D97A9A0F4
:100CC000BAA0CBA0DCA06FEF7FEF80E090E0A6227F
:100CD000B722C822D92289A19AA1ABA1BCA11D012A
:100CE00044245524C801B701A60195010E940F1E96
:100CF00069966CAF7DAF8EAF9FAF6997C801B701A2
:100D0000A20191010E940F1E3B014C016D966CAD3A
:100D10007DAD8EAD9FAD6D97A60195010E940F1E12
:100D20007B018C016D966CAD7DAD8EAD9FAD6D97E9
:100D3000A20191010E940F1E5B016C01A8019701A5
:100D4000260D371D481D591D69966CAC7DAC8EACC7
:100D50009FAC6997C401AA27BB27280F391F4A1FD8
:100D60005B1F2E153F054007510748F4E12CF12C7D
:100D700061E0062F112DAE0CBF1CC01ED11ECA0192
:100D8000AA27BB27BC01CD016A0D7B1D8C1D9D1DB3
:100D9000698C7A8C8B8C9C8C6616770688069906F3
:100DA00040F1661577058805990509F043C0D9011A
:100DB0009927882769962CAD3DAD4EAD5FAD6997FB
:100DC00040705070820F931FA41FB51F2DA53EA524
:100DD0004FA558A96E960FAC6E9704C0220F331F13
:100DE000441F551F0A94D2F7281739074A075B0793
:100DF00008F509A91AA92BA93CA9015010402040C7
:100E0000304009AB1AAB2BAB3CAB14C06624772443
:100E1000430121E030E040E050E029AB3AAB4BAB7E
:100E20005CAB0BC066247724430119AA1AAA1BAA3B
:100E30001CAA03C0662477244301FE01719688E052
:100E4000DF011D928A95E9F7A9A8BAA8CBA8DCA86A
:100E5000A98ABA8ACB8ADC8A6D8A7E8A8F8A988E22
:100E600029A93A894B895C89662D7E898F89988D5D
:100E7000C25ADF4FE2E10C946C1EABE5B0E0E3E454
:100E8000F7E00C94501EA8E04E010894811C911CC0
:100E9000F4016A2E11926A94E9F729833A834B830D
:100EA0005C836D837E838F839887CE010996FC01D6
:100EB0001192AA95E9F7A986BA86CB86DC86ED86DB
:100EC000FE860F87188B29843A844B845C84AD841A
:100ED000BE84CF84D88829813A814B815C81699610
:100EE0002FAF69976A963FAF6A976B964FAF6B9734
:100EF0006C965FAF6C976C966CAC7DAC8EAC9FAC17
:100F00006C9769AA7AAA8BAA9CAA6D817E818F812F
:100F100098853B014C016DAA7EAA8FAA98AEA114B8
:100F2000B104C104D10409F004C36214730484043D
:100F3000950408F000C100E0201600E0300601E052
:100F4000400600E0500688F41FEF211631044104EA
:100F5000510439F030F088E0E82EF12C012D112DEC
:100F600018C0EE24FF24870114C040E0241640E09E
:100F7000340640E0440641E0540630F0B8E1EB2E80
:100F8000F12C012D112D05C0A0E1EA2EF12C012D2F
:100F9000112DD201C1010E2C04C0B695A7959795CD
:100FA00087950A94D2F780509D4FDC012C9180E206
:100FB00090E0A0E0B0E08E199F09A00BB10B5C019E
:100FC0006D01A21AB108C108D108A9AEBAAECBAE64
:100FD000DCAEA114B104C104D10409F43FC069AD71
:100FE000062E04C0220C331C441C551C0A94D2F754
:100FF000A4019301062E04C0220F331F441F551F66
:101000000A94D2F780E290E08A199B096C96CCACE6
:10101000DDACEEACFFAC6C9704C0F694E794D794CB
:10102000C7948A95D2F787017601E22AF32A042B26
:10103000152BEDAAFEAA0FAB18AF6C968CAD9DAD2B
:10104000AEADBFAD6C9704C0880F991FAA1FBB1F20
:101050006A95D2F789AB9AABABABBCAB32018824B3
:101060009924B201A1016070707021964CAF5DAF00
:101070006EAF7FAF21976DA97EA98FA998ADA4010E
:1010800093010E942E1E7B018C016DA97EA98FA960
:1010900098ADA40193010E942E1ECA01B9012196A8
:1010A0002CAD3DAD4EAD5FAD21970E940F1E9B0153
:1010B000AC018701FF24EE24A9A8BAA8CBA8DCA81C
:1010C000C601AA27BB2757016801A82AB92ACA2A3C
:1010D000DB2AA216B306C406D50690F4A20CB31CF4
:1010E000C41CD51CA214B304C404D50448F0A21631
:1010F000B306C406D50620F4A20CB31CC41CD51C30
:10110000A21AB30AC40AD50AC601B501A401930103
:101110000E942E1E7B018C01C601B501A401930122
:101120000E942E1ECA01B90121962CAD3DAD4EADD7
:101130005FAD2197BAC1211431044104510471F407
:1011400061E070E080E090E020E030E040E050E0DE
:101150000E942E1EC901DA011C012D0100E020169B
:1011600000E0300601E0400600E0500688F41FEF82
:10117000211631044104510439F030F068E0E62EC4
:10118000F12C012D112D18C0EE24FF24870114C06D
:1011900040E0241640E0340640E0440641E05406B6
:1011A00030F058E1E52EF12C012D112D05C040E164
:1011B000E42EF12C012D112DD201C1010E2C04C001
:1011C000B695A795979587950A94D2F780509D4F2D
:1011D000DC012C9130E2A32EB12CC12CD12CD601F4
:1011E000C5018E199F09A00BB10B7C018D01E21A7C
:1011F000F10801091109E9AEFAAE0BAF1CAFE11419
:10120000F1040105110539F464015301A218B30872
:10121000C408D508E2C0F9AC6896FFAE68970F2CF9
:1012200004C0220C331C441C551C0A94D2F78A2D8E
:101230008F1964015301082E04C0D694C794B79443
:10124000A7940A94D2F7A401930104C0220F331F7C
:10125000441F551FFA94D2F76C966CAC7DAC8EACE3
:101260009FAC6C9704C096948794779467948A9502
:10127000D2F784017301E22AF32A042B152BEDA681
:10128000FEA60FA718AB320188249924B201A10150
:101290006070707025964CAF5DAF6EAF7FAF2597D5
:1012A000C601B501A40193010E942E1E7B018C0191
:1012B000C601B501A40193010E942E1ECA01B90105
:1012C00025962CAD3DAD4EAD5FAD25970E940F1E0E
:1012D0009B01AC018701FF24EE24ADA4BEA4CFA4E2
:1012E000D8A8C601AA27BB275C016D01AE28BF287C
:1012F000C02AD12AA216B306C406D50690F4A20CC1
:10130000B31CC41CD51CA214B304C404D50448F0F7
:10131000A216B306C406D50620F4A20CB31CC41C46
:10132000D51CA21AB30AC40AD50AC601B501A40184
:1013300093010E942E1E7B018C01C601B501A40100
:1013400093010E942E1ECA01B90125962CAD3DAD18
:101350004EAD5FAD25970E940F1E9B01AC0187012A
:10136000FF24EE248DA59EA5AFA5B8A9A070B070EE
:1013700057016801A82AB92ACA2ADB2AA216B3068D
:10138000C406D50690F4A20CB31CC41CD51CA21430
:10139000B304C404D50448F0A216B306C406D506A7
:1013A00020F4A20CB31CC41CD51C6C96ECACFDAC98
:1013B0000EAD1FAD6C9768960FAC689704C0EE0C2D
:1013C000FF1C001F111F0A94D2F7E9AAFAAA0BAB5F
:1013D0001CABA21AB30AC40AD50A32018824992484
:1013E000B201A1016070707029964CAF5DAF6EAF15
:1013F0007FAF2997C601B501A40193010E942E1E5B
:101400007B018C01C601B501A40193010E942E1E2F
:10141000CA01B90129962CAD3DAD4EAD5FAD2997FE
:101420000E940F1E9B01AC018701FF24EE24A9A896
:10143000BAA8CBA8DCA8C601AA27BB275701680118
:10144000A82AB92ACA2ADB2AA216B306C406D506D8
:1014500090F4A20CB31CC41CD51CA214B304C40485
:10146000D50448F0A216B306C406D50620F4A20C93
:10147000B31CC41CD51CA21AB30AC40AD50AC601DF
:10148000B501A40193010E942E1E7B018C01C601AF
:10149000B501A40193010E942E1ECA01B90129962B
:1014A0002CAD3DAD4EAD5FAD29970E940F1E9B0147
:1014B000AC018701FF24EE2489A99AA9ABA9BCA994
:1014C000A070B070E82AF92A0A2B1B2BE216F3064B
:1014D0000407150790F4E20CF31C041D151DE2141B
:1014E000F3040405150548F0E216F3060407150792
:1014F00020F4E20CF31C041D151DE21AF30A040B80
:10150000150BD801C70109AC04C0B695A7959795EE
:1015100087950A94D2F7898B9A8BAB8BBC8B1D8AEB
:101520001E8A1F8A188E282F3A894B895C896D89FB
:101530000CC36A147B048C049D0408F409C300E006
:10154000A01600E0B00601E0C00600E0D00688F476
:101550001FEFA116B104C104D10439F030F028E026
:10156000E22EF12C012D112D18C0EE24FF2487014D
:1015700014C040E0A41640E0B40640E0C40641E0D8
:10158000D40630F098E1E92EF12C012D112D05C083
:1015900080E1E82EF12C012D112DD601C5010E2C74
:1015A00004C0B695A795979587950A94D2F7805071
:1015B0009D4FDC012C9180E290E0A0E0B0E08E191C
:1015C0009F09A00BB10B821B9109A109B1090097DA
:1015D000A105B10509F04FC0A614B704C804D90489
:1015E00058F06C96ECACFDAC0EAD1FAD6C97E214F0
:1015F000F3040405150568F16C96ECACFDAC0EAD7A
:101600001FAD6C97E218F30804091509A4019301B2
:101610002A193B094C095D09AA24BB2465016C9673
:101620006CAD7DAD8EAD9FAD6C976E157F0580075F
:10163000910728F4B1E0AB2EB12CC12CD12CDA01EA
:10164000C9018A199B09AC09BD098DAB9EABAFAB33
:10165000B8AFE98AFA8A0B8B1C8B6DA87EA88FA87D
:1016600098AC6D8A7E8A8F8A988E2E2D3A894B8906
:101670005C896DA96AC267968FAF6797A6019501CD
:10168000082E04C0220F331F441F551F0A94D2F79F
:10169000A0E2AA2EA81A6696AFAE6697D201C10143
:1016A00004C0B695A79597958795AA94D2F76C0133
:1016B0007D01C22AD32AE42AF52AC9A6DAA6EBA616
:1016C000FCA68201710167960FAC679704C0EE0C0F
:1016D000FF1C001F111F0A94D2F7EDA2FEA20FA358
:1016E00018A76401530166960FAC669704C0D694A0
:1016F000C794B794A7940A94D2F7A401930167966C
:101700000FAC679704C0220F331F441F551F0A9464
:10171000D2F76C968CAD9DADAEADBFAD6C976696B5
:101720000FAC669704C0B695A795979587950A94D0
:10173000D2F73C014D01622A732A842A952A69A2B4
:101740007AA28BA29CA26C96ECACFDAC0EAD1FAD48
:101750006C9767960FAC679704C0EE0CFF1C001FD8
:10176000111F0A94D2F7ED8EFE8E0F8F18A349A594
:101770005AA56BA57CA53B018824992460707070E4
:101780002D964CAF5DAF6EAF7FAF2D97C601B50103
:10179000A40193010E942E1E7B018C01C601B5019C
:1017A000A40193010E942E1EC901DA011C012D0122
:1017B000C201B1012D962CAD3DAD4EAD5FAD2D9763
:1017C0000E940F1E9B01AC018701FF24EE24A9A0FB
:1017D000BAA0CBA0DCA0C601AA27BB27570168018D
:1017E000A82AB92ACA2ADB2AA216B306C406D50635
:1017F00000F508942108310841085108E9A4FAA429
:101800000BA51CA5AE0CBF1CC01ED11EAE14BF0480
:10181000C006D10670F0A216B306C406D50648F479
:1018200008942108310841085108AE0CBF1CC01EA5
:10183000D11EA21AB30AC40AD50AC601B501A40171
:1018400093010E942E1E7B018C01C601B501A401EB
:1018500093010E942E1EC901DA013C014D01C40111
:10186000B3012D962CAD3DAD4EAD5FAD2D970E94D1
:101870000F1E9B01AC018701FF24EE2489A19AA1D0
:10188000ABA1BCA1A070B07057016801A82AB92A09
:10189000CA2ADB2AA216B306C406D50600F50894A8
:1018A000610871088108910869A57AA58BA59CA596
:1018B000A60EB71EC81ED91EA616B706C806D9069C
:1018C00070F0A216B306C406D50648F40894610861
:1018D000710881089108A60EB71EC81ED91ED60130
:1018E000C501821B930BA40BB50B898F9A8FAB8F0D
:1018F000BC8FD1019927882784017301E82AF92A2E
:101900000A2B1B2B4FEFA42E4FEFB42EC12CD12C42
:10191000AE20BF20C022D1227801002711276DA060
:101920007EA08FA098A44FEF5FEF60E070E064228C
:101930007522862297228DA19EA1AFA1B8A5BD01D7
:101940008827992765966CAF7DAF8EAF9FAF65975F
:10195000C601B501A40193010E940F1E61966CAFF0
:101960007DAF8EAF9FAF6197C601B50165962CAD77
:101970003DAD4EAD5FAD65970E940F1E1B012C0162
:10198000C801B701A40193010E940F1E5B016C0105
:10199000C801B70165962CAD3DAD4EAD5FAD659705
:1019A0000E940F1E7B018C01A6019501220D331DA3
:1019B000441D551D61966CAC7DAC8EAC9FAC61979F
:1019C000C401AA27BB27280F391F4A1F5B1F2A15EE
:1019D0003B054C055D0548F4812C912CE1E0AE2ED1
:1019E000B12CE80CF91C0A1D1B1DCA01AA27BB2734
:1019F00057016801A80EB91ECA1EDB1EA9013327B4
:101A0000222761968CAD9DADAEADBFAD6197A07044
:101A1000B070280F391F4A1F5B1FE98CFA8C0B8DA1
:101A20001C8DEA14FB040C051D0570F0AE14BF04F8
:101A3000C006D10669F56D8D7E8D8F8D98A16217D8
:101A400073078407950720F5DA01C9016DA07EA010
:101A50008FA098A486199709A809B909E9A4FAA43E
:101A60000BA51CA5AE18BF08C00AD10AEE24FF249E
:101A70008701281739074A075B0728F421E0E22E7F
:101A8000F12C012D112DAE18BF08C00AD10A02C0D9
:101A9000DA01C9016D8C7E8C8F8C98A0681A790A46
:101AA0008A0A9B0A498D5A8D6B8D7C8D4A195B0978
:101AB0006C097D095A016B012224332421016D8DAB
:101AC0007E8D8F8D98A1661577058805990528F478
:101AD00081E0282E312C412C512C86017501E21811
:101AE000F30804091509A801970166960FAC6697DB
:101AF00004C0220F331F441F551F0A94D2F7D4018C
:101B0000C30167960FAC679704C0B695A7959795E4
:101B100087950A94D2F7282B392B4A2B5B2B298BDC
:101B20003A8B4B8B5C8B67960FAC679704C016950E
:101B30000795F794E7940A94D2F7ED8AFE8A0F8B03
:101B4000188F3A894B895C896E2D7E898F89988D93
:101B5000C55ADF4FE2E10C946C1E1F920F920FB634
:101B60000F9211242F933F934F935F936F937F9323
:101B70008F939F93AF93BF93EF93FF93E0910A04EA
:101B8000F0910B04309721F084B195B193700995D1
:101B9000FF91EF91BF91AF919F918F917F916F9145
:101BA0005F914F913F912F910F900FBE0F901F901B
:101BB0001895FC018081813049F0813028F0823015
:101BC00039F0833051F407C03F9803C03F9804C0F8
:101BD0003F9A3E9802C03F9A3E9A3D988181843058
:101BE00041F1853048F4813091F0813070F08230DD
:101BF00091F08330F1F519C0863031F1863000F173
:101C0000873049F18830A9F52AC0359832C0359A15
:101C100080B78F7D03C0359A80B7806280BF80B760
:101C20008F7B80BF80B78F7723C0359A80B78F7D39
:101C300003C0359A80B7806280BF80B78064F1CFDF
:101C4000359A80B78F7D03C0359A80B7806280BF98
:101C500080B78F7B0AC0359A80B78F7D03C0359AD5
:101C600080B7806280BF80B7806480BF80B78068A3
:101C700080BF82818330B1F0843028F4813061F0FC
:101C8000823070F407C0853099F0853070F086306E
:101C9000A1F410C0329807C03298319A30980DC024
:101CA000329809C0329A3198F9CF329A319804C0EB
:101CB000329AF3CF329A319A309A379A0895982F00
:101CC0003699FECF87B1807E87B987B1892B87B9D6
:101CD000369A0895349BFECF349A24B135B13370CF
:101CE000C9010895FC0186B182958F7080FD02C004
:101CF00080E00895349A84B195B193709183808384
:101D000081E00895339A08953398089590930B04D1
:101D100080930A04089540E00E94650F089541E011
:101D20000E94650F089542E00E94970E0895813049
:101D3000D1F1813038F0823009F466C0833009F087
:101D4000C3C093C0423059F42AB381E090E002C08E
:101D5000880F991F6A95E2F7282B2ABB0895442320
:101D600079F48AB321E030E002C0220F331F6A9574
:101D7000E2F7209582238ABB8BB328232BBB0895DF
:101D8000413009F0A1C03AB381E090E002C0880F71
:101D9000991F6A95E2F7282F209523232ABB2BB39E
:101DA000822B8BBB0895423059F427B381E090E039
:101DB00002C0880F991F6A95E2F7282B27BB089568
:101DC000442379F487B321E030E002C0220F331FAF
:101DD0006A95E2F72095822387BB88B3282328BB26
:101DE0000895413009F070C037B381E090E002C03F
:101DF000880F991F6A95E2F7282F2095232327BB88
:101E000028B3822B88BB0895423059F424B381E073
:101E100090E002C0880F991F6A95E2F7282B24BB37
:101E20000895442379F484B321E030E002C0220F06
:101E3000331F6A95E2F72095822384BB85B328235C
:101E400025BB0895413009F03FC034B381E090E0F4
:101E500002C0880F991F6A95E2F7282F2095232347
:101E600024BB25B3822B85BB0895423059F421B39E
:101E700081E090E002C0880F991F6A95E2F7282B55
:101E800021BB0895442379F481B321E030E002C0FE
:101E9000220F331F6A95E2F72095822381BB82B31C
:101EA000282322BB0895413079F431B381E090E0DA
:101EB00002C0880F991F6A95E2F7282F20952323E7
:101EC00021BB22B3822B82BB0895813029F181305E
:101ED00038F0823009F43CC0833009F06EC053C042
:101EE000413059F42BB381E090E002C0880F991F74
:101EF0006A95E2F7282B2BBB0895442309F05DC0B7
:101F00002BB381E090E002C0880F991F6A95E2F739
:101F1000809582238BBB0895413059F428B381E02A
:101F200090E002C0880F991F6A95E2F7282B28BB22
:101F30000895442309F041C028B381E090E002C035
:101F4000880F991F6A95E2F78095822388BB0895D0
:101F5000413059F425B381E090E002C0880F991F09
:101F60006A95E2F7282B25BB0895442331F525B364
:101F700081E090E002C0880F991F6A95E2F7809592
:101F8000822385BB0895413059F422B381E090E06B
:101F900002C0880F991F6A95E2F7282B22BB08958B
:101FA000442359F422B381E090E002C0880F991FC6
:101FB0006A95E2F78095822382BB08958130A9F06B
:101FC000813030F08230F1F0833081F180E008958B
:101FD0008BB321E030E0062E02C0220F331F0A949B
:101FE000E2F782278BBB89B319C088B321E030E0C8
:101FF000062E02C0220F331F0A94E2F7822788BB05
:1020000086B30CC085B321E030E0062E02C0220F5B
:10201000331F0A94E2F7822785BB83B390E002C0A6
:10202000959587956A95E2F78170089582B321E0CE
:1020300030E0062E02C0220F331F0A94E2F78227F7
:1020400082BB80B390E002C0959587956A95E2F7D0
:1020500081700895813051F0813030F0823041F04C
:10206000833079F080E0089589B303C086B301C05E
:1020700083B390E002C0959587956A95E2F78170E9
:10208000089580B390E002C0959587956A95E2F730
:10209000817008951F920F920FB60F9211242F9303
:1020A0003F934F935F936F937F938F939F93AF93E0
:1020B000BF93EF93FF93E0910C04F0910D043097E0
:1020C00009F00995FF91EF91BF91AF919F918F9189
:1020D0007F916F915F914F913F912F910F900FBE24
:1020E0000F901F9018951F920F920FB60F92112408
:1020F0002F933F934F935F936F937F938F939F9310
:10210000AF93BF93EF93FF93E0910E04F0910F0410
:10211000309709F00995FF91EF91BF91AF919F9191
:102120008F917F916F915F914F913F912F910F9080
:102130000FBE0F901F9018951F920F920FB60F921F
:1021400011242F933F934F935F936F937F938F93BC
:102150009F93AF93BF93EF93FF93E0911004F0919F
:102160001104309709F00995FF91EF91BF91AF915C
:102170009F918F917F916F915F914F913F912F919F
:102180000F900FBE0F901F901895813051F0813045
:1021900018F0823079F40AC070930D0460930C0437
:1021A000089570930F0460930E04089570931104C2
:1021B000609310040895813009F1813020F082305D
:1021C00009F044C037C0613051F0613028F062300E
:1021D00061F06330D9F50CC085B78E7F02C085B73A
:1021E000816085BF85B78D7F23C085B78E7F02C094
:1021F00085B7816085BF85B782601AC0613051F0B4
:10220000613028F0623061F0633001F50CC085B7B1
:102210008B7F02C085B7846085BF85B7877F08C084
:1022200085B78B7F02C085B7846085BF85B788601E
:1022300085BF0895623019F0633041F404C084B75B
:102240008F7B84BF089584B7806484BF08958130F4
:1022500041F0813018F0823059F407C08BB78064A8
:1022600002C08BB780688BBF08958BB780628BBF2D
:102270000895813041F0813018F0823059F407C060
:102280008BB78F7B02C08BB78F778BBF08958BB7CF
:102290008F7D8BBF0895813041F0813018F08230FE
:1022A00059F407C08AB7806402C08AB780688ABFC1
:1022B00008958AB780628ABF0895813061F08130C5
:1022C00020F0823069F080E008958AB78295869583
:1022D0008695817008958AB7881F8827881F08957A
:1022E0008AB782958695817008950E94871E90E036
:1022F000882309F491E0892F08951F920F920FB659
:102300000F9211242F933F934F935F936F937F937B
:102310008F939F93AF93BF93EF93FF93E09112043A
:10232000F0911304309709F00995FF91EF91BF9157
:10233000AF919F918F917F916F915F914F913F915D
:102340002F910F900FBE0F901F9018951F920F9214
:102350000FB60F9211242F933F934F935F936F9378
:102360007F938F939F93AF93BF93EF93FF93E091EE
:102370001404F0911504309709F00995FF91EF913D
:10238000BF91AF919F918F917F916F915F914F918D
:102390003F912F910F900FBE0F901F9018951F9295
:1023A0000F920FB60F9211242F933F934F935F9389
:1023B0006F937F938F939F93AF93BF93EF93FF930D
:1023C000E0911604F0911704309709F00995FF91F8
:1023D000EF91BF91AF919F918F917F916F915F919D
:1023E0004F913F912F910F900FBE0F901F90189516
:1023F0001F920F920FB60F9211242F933F934F937A
:102400005F936F937F938F939F93AF93BF93EF935C
:10241000FF93E0911804F0911904309709F00995A1
:10242000FF91EF91BF91AF919F918F917F916F91AC
:102430005F914F913F912F910F900FBE0F901F9082
:1024400018951F920F920FB60F9211242F933F935E
:102450004F935F936F937F938F939F93AF93BF93AC
:10246000EF93FF93E0911A04F0911B04309709F069
:102470000995FF91EF91BF91AF919F918F917F91BE
:102480006F915F914F913F912F910F900FBE0F90E1
:102490001F9018951F920F920FB60F9211242F9331
:1024A0003F934F935F936F937F938F939F93AF93DC
:1024B000BF93EF93FF93E0911E04F0911F043097B8
:1024C00009F00995FF91EF91BF91AF919F918F9185
:1024D0007F916F915F914F913F912F910F900FBE20
:1024E0000F901F9018951F920F920FB60F92112404
:1024F0002F933F934F935F936F937F938F939F930C
:10250000AF93BF93EF93FF93E0911C04F0911D04F0
:10251000309709F00995FF91EF91BF91AF919F918D
:102520008F917F916F915F914F913F912F910F907C
:102530000FBE0F901F901895FB01813099F18130EB
:1025400020F0823009F0C1C091C08081882319F049
:10255000813051F403C083B7877F02C083B788609E
:1025600083BF83B78F7B83BF6181613059F0613056
:1025700030F0623069F0633009F0A7C00CC083B757
:102580008F7E02C083B7806183BF83B78F7D08C011
:1025900083B78F7E02C083B7806183BF83B78062B9
:1025A00083BF08958081823069F08330B9F0882339
:1025B00009F58FB58E7F8FBD8FB58D7F8FBD8EB5A1
:1025C000877F08C08FB58E7F8FBD8FB58D7F8FBD04
:1025D0008EB588608EBD8EB58F7E0BC08FB58E7F19
:1025E0008FBD8FB58D7F8FBD8EB588608EBD8EB54A
:1025F00080618EBD6181673001F1683040F46530E3
:1026000099F06630B8F4643009F05FC00AC06930F0
:10261000E9F06930C0F06A30F9F06B3009F055C06C
:102620001EC08FB58F7B02C08FB580648FBD8FB504
:102630008F771AC08FB58F7B02C08FB580648FBD36
:102640008FB5806811C08FB58F7E02C08FB5806155
:102650008FBD8FB58F7D08C08FB58F7E02C08FB5BF
:1026600080618FBD8FB580628FBD08958081882382
:1026700019F0813051F403C085B5877F02C085B55C
:10268000886085BD85B58F7B85BD6181613051F0E6
:10269000613028F0623061F06330B9F410C085B564
:1026A0008F7E02C085B5806185BD85B58F7D05C0F3
:1026B00085B58F7E85BD85B5806285BD089585B55C
:1026C000806185BD85B5806285BD0895813009F43E
:1026D00041C0813020F0823009F0B7C077C065304A
:1026E00011F1663038F4613091F0613050F06330B0
:1026F00079F516C0673001F16730C0F0683041F5F8
:102700001EC083B7816083BF83B78D7F05C083B749
:102710008E7F83BF83B7826083BF83B78B7F17C0F1
:1027200083B78160F6CF83B78E7F02C083B78160A5
:1027300083BF83B78D7F08C083B78E7F02C083B706
:10274000816083BF83B7826083BF83B7846083BFA8
:1027500012BE0895653011F1663038F4613091F0A1
:10276000613050F0633079F516C0673001F16730A1
:10277000C0F0683041F51EC08EB581608EBD8EB54B
:102780008D7F05C08EB58E7F8EBD8EB582608EBD6D
:102790008EB58B7F17C08EB58160F6CF8EB58E7FDC
:1027A00002C08EB581608EBD8EB58D7F08C08EB59E
:1027B0008E7F02C08EB581608EBD8EB582608EBD6B
:1027C0008EB584608EBD1DBC1CBC0895633001F1C4
:1027D000643028F4613081F06230B8F407C06530AD
:1027E00001F16530C0F0663079F525C085B58160AE
:1027F00085BD85B58D7F05C085B58E7F85BD85B5C9
:10280000826085BD85B58B7F1EC085B58160F6CFA2
:1028100085B58E7F02C085B5816085BD85B58D7F0C
:102820000FC08EB58E7F8EBD8EB582608EBD8EB58B
:1028300084608EBD09C085B5816085BD85B5826027
:1028400085BD85B5846085BD14BC0895813079F05F
:10285000813018F08230F1F414C083B78B7F83BFCE
:1028600083B78D7F83BF83B78E7F83BF08958EB577
:102870008B7F8EBD8EB58D7F8EBD8EB58E7F8EBDCE
:10288000089585B58B7F85BD85B58D7F85BD85B563
:102890008E7F85BD0895813039F0813018F0823007
:1028A00039F405C012BE08951DBC1CBC089514BCAB
:1028B0000895813039F0813018F0823039F405C044
:1028C00062BF08957DBD6CBD089564BD08958130DB
:1028D00049F0813028F0823041F0833051F408C053
:1028E0006CBF08957BBD6ABD089579BD68BD08952C
:1028F00063BD08958330C9F0843028F4813079F0C5
:10290000823080F409C08530B1F0853088F086309F
:10291000A9F08730D1F416C089B7826011C089B799
:1029200081600EC089B780610BC089B7886008C01C
:1029300089B7846005C089B7806202C089B78068A2
:1029400089BF089589B7806489BF08958330C9F02D
:10295000843028F4813079F0823080F409C08530E9
:10296000B1F0853088F08630A9F08730D1F416C0F8
:1029700089B78D7F11C089B78E7F0EC089B78F7ED2
:102980000BC089B7877F08C089B78B7F05C089B71F
:102990008F7D02C089B78F7789BF089589B78F7BF4
:1029A00089BF08958330E9F0843028F4813079F0CC
:1029B000823090F407C08630F1F0873009F184301E
:1029C00019F514C070931304609312040895709362
:1029D000150460931404089570931704609316040B
:1029E00008957093190460931804089570931B045C
:1029F00060931A04089570931F0460931E04089551
:102A000070931D0460931C040895813049F0813057
:102A100028F0823041F020E030E008C082B704C0E6
:102A20002CB53DB503C084B5282F30E0C901089509
:102A30001F920F920FB60F9211242F933F934F9333
:102A40005F936F937F938F939F93AF93BF93EF9316
:102A5000FF93E0912004F0912104309719F086B59E
:102A600097B50995FF91EF91BF91AF919F918F918C
:102A70007F916F915F914F913F912F910F900FBE7A
:102A80000F901F901895882319F0813041F404C0ED
:102A90008EB58F7B8EBD08958EB580648EBD0895F2
:102AA0008EB580688EBD08958EB58F778EBD0895E2
:102AB00089B7806289BF089589B78F7D89BF0895DE
:102AC0009093210480932004089585B7806885BF82
:102AD000089585B78F7785BF08958230F1F08330F0
:102AE00030F4882359F0813009F042C00DC08430A1
:102AF00031F18430C0F08530D9F52EC085B78068BB
:102B000085BF85B78F7E05C085B7806885BF85B7CF
:102B1000806185BF85B78F7D0EC085B7806885BF12
:102B200085B78F7E05C085B7806885BF85B7806112
:102B300085BF85B7806285BF85B78F7B0BC085B7A2
:102B4000806885BF85B78F7E85BF85B7806285BF6A
:102B500085B7806485BF089585B7806885BF85B7D0
:102B6000806185BF85B7806285BF85B7806485BF7A
:102B7000089540E00E94650F089541E00E94650FAE
:102B8000089542E00E94970E0895813009F444C0F0
:102B9000813038F0823009F43FC0833009F0B0C092
:102BA00077C0653011F1663038F4613091F06130F2
:102BB00050F0633079F516C0673001F16730C0F02E
:102BC000683041F51EC083B7816083BF83B78D7FB6
:102BD00005C083B78E7F83BF83B7826083BF83B70F
:102BE0008B7F17C083B78160F6CF83B78E7F02C01B
:102BF00083B7816083BF83B78D7F08C083B78E7F23
:102C000002C083B7816083BF83B7826083BF83B70D
:102C1000846083BF12BE0895653011F1663038F4C8
:102C2000613091F0613050F0633079F516C0673053
:102C300001F16730C0F0683041F51EC08EB581608B
:102C40008EBD8EB58D7F05C08EB58E7F8EBD8EB547
:102C500082608EBD8EB58B7F17C08EB58160F6CF3A
:102C60008EB58E7F02C08EB581608EBD8EB58D7F94
:102C700008C08EB58E7F02C08EB581608EBD8EB5C8
:102C800082608EBD8EB584608EBD1DBC1CBC089557
:102C9000633001F1643028F4613081F0623088F4EF
:102CA00007C0653001F16530C0F0663041F51EC0E7
:102CB00085B5816085BD85B58D7F08C085B58E7F62
:102CC00002C085B5816085BD85B5826085BD85B54D
:102CD0008B7F14C085B58E7F02C085B5816085BDB0
:102CE00085B58D7F08C085B58E7F02C085B58160B2
:102CF00085BD85B5826085BD85B5846085BD14BC04
:102D00000895813089F0813028F0823069F0833075
:102D1000F1F414C083B78B7F83BF83B78D7F83BFEC
:102D200083B78E7F83BF08958EB58B7F8EBD8EB5A2
:102D30008D7F8EBD8EB58E7F8EBD089585B58B7FC0
:102D400085BD85B58D7F85BD85B58E7F85BD089593
:102D5000813089F0813028F08230C9F0833061F50C
:102D600022C08FEF689FC001112464E670E00E94CA
:102D7000E01D6CBF0895862F90E0909581959F4F40
:102D800064E670E00E94E01D7BBD6ABD0895862F59
:102D900090E0909581959F4F64E670E00E94E01D61
:102DA00079BD68BD08958FEF689FC001112464E666
:102DB00070E00E94E01D63BD0895813049F08130CC
:102DC00028F0823041F0833051F408C06CBF089580
:102DD0007BBD6ABD089579BD68BD089563BD089542
:102DE00097BD86BD08951F93162F813029F181303C
:102DF00030F08230F1F1833009F0BEC0A5C081E02F
:102E000063E042E00E94970E83B78F7E83BF83B753
:102E1000806283BF112349F0113009F0ADC083B740
:102E2000886083BF83B78F7B05C083B7886083BF0B
:102E300083B7806483BFA0C083E065E042E00E9466
:102E4000970E8FB58F7B8FBD8FB580681CC08FB5F7
:102E500081608FBD8FB582608FBD8EB5877F54C076
:102E60008FB58E7F8FBD8FB582608FBD8EB5877F0A
:102E700066C083E064E042E00E94970E8FB58F7ECB
:102E80008FBD8FB580628FBD1730B1F1183080F4DF
:102E90001430E9F2153030F41230E1F0133009F05B
:102EA0006BC01EC01530F9F0163009F065C021C0A6
:102EB0001A3089F11B3030F4183051F1193009F013
:102EC0005BC0CECF1C3081F11C3040F11D3009F0C9
:102ED00053C02DC08FB581608FBD8FB58D7FBCCFA6
:102EE0008FB58E7FB6CF8FB581608FBD8FB58D7F4B
:102EF00008C08FB58E7F02C08FB581608FBD8FB542
:102F000082608FBD8EB588608EBD8EB58F7E1AC0F3
:102F10008FB58E7F05C08FB58E7F0BC08FB581605A
:102F20008FBD8FB58D7FA1CF8FB581609BCF8FB5C2
:102F300081608FBD8FB582608FBD8EB588608EBD7C
:102F40008EB580618EBD18C083E067E042E00E94CC
:102F5000970E85B58F7E85BD85B5806285BD1123B1
:102F600029F0113049F485B5877F02C085B58860A6
:102F700085BD85B5806485BD1F9108951F920F9210
:102F80000FB60F9211242F933F934F935F936F933C
:102F90007F938F939F93AF93BF93EF93FF93E091B2
:102FA0002204F0912304309711F08CB10995FF9120
:102FB000EF91BF91AF919F918F917F916F915F91B1
:102FC0004F913F912F910F900FBE0F901F9018952A
:102FD0001F920F920FB60F9211242F933F934F938E
:102FE0005F936F937F938F939F93AF93BF93EF9371
:102FF000FF93E0912404F0912504309709F009959E
:10300000FF91EF91BF91AF919F918F917F916F91C0
:103010005F914F913F912F910F900FBE0F901F9096
:1030200018951F920F920FB60F9211242F933F9372
:103030004F935F936F937F938F939F93AF93BF93C0
:10304000EF93FF93E0912604F0912704309709F065
:103050000995FF91EF91BF91AF919F918F917F91D2
:103060006F915F914F913F912F910F900FBE0F90F5
:103070001F901895599883E389B910BC089501C031
:103080008CB15F99FDCF08955D9BFECF8CB95E9B9F
:10309000FECF5E9A08952F923F924F925F926F9269
:1030A0007F928F929F92AF92BF92CF92DF92EF92D8
:1030B000FF920F931F93DF93CF930F92CDB7DEB79D
:1030C0006B017C0197FF0BC0F094E094D094C09406
:1030D000C11CD11CE11CF11C8DE20E944418222469
:1030E000332444245524662477248824992419827F
:1030F0009101A201B301C40101E00E944900122F15
:10310000B32EA42E952E862E772E682E392E02E011
:103110000E944900022F010F21E0011708F020E072
:103120003B0DE1E03B1508F0E0E0522E530E21E0AC
:10313000531608F020E0E22B4A0D31E04A1508F062
:1031400030E04E2E440E21E0441608F020E0322BF1
:10315000590D41E0591508F040E0932E950E21E0FD
:10316000951608F020E0422B680D31E0681508F054
:1031700030E0842E860E21E0861608F020E0322B07
:10318000770D41E0771508F040E0732E770E21E0CF
:10319000771608F020E0422B860D31E0861508F006
:1031A00030E0642E680E21E0681608F020E0B32EAF
:1031B000B22A930DB90EC701B6012AE030E040E013
:1031C00050E00E94F41D9B01AC01550F220B322FE1
:1031D000A901E62F672F322F422F522F1E2F100FDB
:1031E000F1E01E1708F0F0E0E62FE50DA1E0E6178C
:1031F00008F0A0E0AF2EAE0EF1E0AE1608F0F0E061
:10320000AF2BE82FE40DB1E0E81708F0B0E00A2F8B
:103210000E0FF1E00E1708F0F0E0BF2BE92FE90DDB
:10322000F1E0E91708F0F0E0AB2FAE0F81E0AE1748
:1032300008F080E0F82B832F880D61E0831708F0F9
:1032400060E0F80F91E0F81708F090E0692B842F08
:10325000870D71E0841708F070E0E62FE80F91E029
:10326000E81708F090E0792B852F860D61E085172F
:1032700008F060E0780F91E0781708F090E0692B93
:103280002B0D212E3A2C402E5A2E6F2E7E2E872E5D
:10329000962E920EC701B6012AE030E040E050E0E1
:1032A0000E94F41DC901DA016C017D0189818F5FE3
:1032B00089831C141D041E041F040CF419CF20C0A4
:1032C0009101A201B301C401EAE0AE2EBB24CC24DB
:1032D000DD24EE24FF2400E010E00E943D07822F51
:1032E000805D0E9444189101A201B301C4010E94B3
:1032F000C80019012A013B014C01E981E150E98331
:10330000F981FF23E9F60F90CF91DF911F910F9183
:10331000FF90EF90DF90CF90BF90AF909F908F90F5
:103320007F906F905F904F903F902F900895CF9334
:10333000DF93EC0103C00E94441821968881882302
:10334000D1F7DF91CF9108951F93CF93DF93EC01D5
:1033500010E003C00E9444181F5FFE01E10FF11D41
:1033600080818823B9F7DF91CF911F91089501C023
:103370008CB15F99FDCF5F9BFECF8CB1089501C0EA
:103380008CB15F99FDCF5F9BFECF8BB12AB13CB171
:103390008C7119F02FEF3FEF08C02695922F917096
:1033A00080E0232F30E0282B392BC9010895DC0160
:1033B00001C08CB15F99FDCF5F9BFECF8CB18C9328
:1033C00090E00CC09F5F01C08CB15F99FDCF5F9B07
:1033D000FECF8CB1FD01E90FF11D8083FD01E90FE6
:1033E000F11D8081833271F710828CB10895813094
:1033F00039F0813018F0823031F404C0579A0895C2
:10340000569A0895559A0895813039F0813018F010
:10341000823031F404C0579808955698089555980D
:10342000089590932504809324040895909327048D
:103430008093260408959093230480932204089592
:1034400083E060E040E00E94970E549A83E061E0E0
:1034500042E00E94970E539A52988EE880BD599888
:1034600083E389B910BC089581B5886081BD089552
:1034700081B5886181BD81B5877F81BD089581B5A2
:10348000886181BD81B5877F81BD81B5886081BD3F
:103490000895982F883030F481B5887F81BD81B53B
:1034A000892B81BD08954F925F926F927F928F9288
:1034B0009F92AF92BF92CF92DF92FF920F931F9392
:1034C000DF93CF93CDB7DEB7C65ED0400FB6F8948A
:1034D000DEBF0FBECDBFFE017F9684E6DF011D92E9
:1034E0008A95E9F7A2E4B2E085E00D90019281505F
:1034F000E1F7FE01B49685E0DF011D928A95E9F7B8
:10350000DE019996ECE4F2E085E001900D928150A5
:10351000E1F7FE01BE9685E0DF011D928A95E9F78D
:10352000DE01D396E6E5F2E085E001900D92815050
:10353000E1F7FE01F89685E0DF011D928A95E9F733
:10354000DE01DD96E0E6F2E086E001900D9281502A
:10355000E1F7FE01ED5BFF4F1082118212821382B0
:103560009E01295B3F4FD901EAE6F2E086E0019037
:103570000D928150E1F7F9011682178210861186AB
:10358000FE01EF5AFF4F9F0144E752E087E0DA0166
:103590000D90AD01D9010D929D018150C1F7379673
:1035A00083E0DF011D928A95E9F7FE01E55AFF4F9E
:1035B0009F014EE752E085E0DA010D90AD01D9019F
:1035C0000D929D018150C1F7359685E0DF011D9276
:1035D0008A95E9F7FE01EB59FF4F84E79DE6A3E7E3
:1035E000B0E081939193A193B19386E0DF011D92A6
:1035F0008A95E9F7FE01E159FF4F9F0148E852E043
:1036000087E0DA010D90AD01D9010D929D01815045
:10361000C1F7379683E0DF011D928A95E9F7FE0135
:10362000E758FF4F9F0142E952E087E0DA010D9031
:10363000AD01D9010D929D018150C1F7379683E00C
:10364000DF011D928A95E9F7FE01ED57FF4F84E6F1
:10365000DF011D928A95E9F79F014CE952E085E070
:10366000DA010D90AD01D9010D929D018150C1F794
:10367000359685E0DF011D928A95E9F7FE01ED5749
:10368000FF4F9F01265F3F4F46EA52E085E0DA0197
:103690000D90AD01D9010D929D018150C1F73F966A
:1036A00085E0DF011D928A95E9F7FE01ED57FF4F96
:1036B0009F012C5E3F4F40EB52E085E0DA010D9018
:1036C000AD01D9010D929D018150C1F7799685E038
:1036D000DF011D928A95E9F7FE01ED57FF4F9F012B
:1036E000225E3F4F4AEB52E085E0DA010D90AD01DA
:1036F000D9010D929D018150C1F7B39685E0DF019C
:103700001D928A95E9F7FE01ED57FF4F9F01285D55
:103710003F4F44EC52E085E0DA010D90AD01D90154
:103720000D929D018150C1F7BD9685E0DF011D928C
:103730008A95E9F7FE01ED57FF4F9F012E5C3F4F41
:103740004EEC52E085E0DA010D90AD01D9010D9209
:103750009D018150C1F7F79685E0DF011D928A95A2
:10376000E9F7FE01ED57FF4F9F01245C3F4F48ED05
:1037700052E085E0DA010D90AD01D9010D929D0175
:103780008150C1F7EF5BFF4F85E0DF011D928A9505
:10379000E9F7FE01E753FF4F9F0142EE52E085E05B
:1037A000DA010D90AD01D9010D929D018150C1F753
:1037B000359685E0DF011D928A95E9F7FE01ED520D
:1037C000FF4F9F014CEE52E085E0DA010D90AD0114
:1037D000D9010D929D018150C1F7359685E0DF0139
:1037E0001D928A95E9F7FE01E352FF4F9F0146EFD4
:1037F00052E085E0DA010D90AD01D9010D929D01F5
:103800008150C1F7359685E0DF011D928A95E9F771
:103810000E94201A80E060E00E94C11580E061E013
:103820000E94C11580E062E00E94930E81E06AE090
:103830000E94F31680E29EE40E94F01681E061E0AF
:103840000E94C51580E063E074E00E949C1280E055
:1038500066E00E94661381E06EEB7DE10E94D21467
:1038600081E00E947A1480E066E070E00E945914C2
:103870008FB780688FBF0E94691581E060ED77E0A7
:103880000E94DD1680E29EE428EC30E0F9013197D9
:10389000F1F70197D9F780E690E00E9497190E940E
:1038A000B71910922904109228044BE0C42ED12C91
:1038B000CC0EDD1E4E010894811C911C3FE1432E6D
:1038C000512C4C0E5D1E23E8622E712C6C0E7D1E59
:1038D00098ECA92EB12C1092290410922804FF24F0
:1038E000109229041092280489E790E00E94971909
:1038F000C6010E94D719109229041092280481E968
:1039000090E00E949719C4010E94D71910922904CF
:103910001092280400E010E010922904109228046C
:10392000B201600F711FC6010E947511882309F44E
:10393000F7C0B301600F711FC4010E947511882385
:1039400009F4EEC010922904109228048FEA90E046
:103950000E949719C6010E94A419CC24DD24FF24DB
:10396000BB248E010B5E1F4F88EC882E912C02C069
:10397000FF24F394109229041092280483EB90E022
:103980000E949719C8010E94D719C8016EEC70E017
:103990000E947511882371F0CC2009F0BCC085ED20
:1039A00090E00E94971980E060E00E94BD15CC2451
:1039B000C394E0CFC80163E071E00E9475118823D1
:1039C00071F0B1E0CB1609F0A6C08BE091E00E9447
:1039D000971980E060E00E94B915CC24CBCFC801D4
:1039E0006EE171E00E947511882371F0DD2009F00D
:1039F00092C085E291E00E94971980E061E00E9408
:103A0000BD15DD24D394B6CFC80167E371E00E94F1
:103A10007511882371F0E1E0DE1609F07CC08FE3B8
:103A200091E00E94971980E061E00E94B915DD24C1
:103A3000A1CFC80162E571E00E9475118823A1F051
:103A4000FF2009F068C087E591E00E94971981E0A6
:103A500066E272E00E94DD1680E29EE4F401319796
:103A6000F1F70197D9F784CFC80166E671E00E94AB
:103A700075118823B1F0F1E0FF1609F04CC08BE618
:103A800091E00E94971981E060ED77E00E94DD16D9
:103A900080E29EE4F4013197F1F70197D9F7FF2412
:103AA00069CFC8016CE771E00E9475118823D1F0DD
:103AB000BB2099F48AE891E00E94971986EA91E088
:103AC0000E94971980E00E9426140E94381A83E011
:103AD0000E946D15BB24B3944DCF8AEC91E00E94F7
:103AE000971919C0C80163EF71E00E94751188230E
:103AF00091F08AEF91E00E949719CE010B960E94F7
:103B0000A41985E092E00E94971981E00E94491A69
:103B10000E94341AFFCF87EE90E00E9497192ACFB7
:103B2000065F1F4F0E36110509F0F6CE8CE092E0CD
:103B30000E949719F39483E0F81609F0D1CE82E33E
:103B400092E00E94971910E080E062E00E948F0EE0
:103B500084EC99E0F5013197F1F70197D9F780E00E
:103B600062E00E948B0E84EC99E0F5013197F1F749
:103B70000197D9F71F5F1A3039F7ADCE809128042D
:103B8000909129040196909329048093280487E05A
:103B90000E94491A0E94341A0E943F1A80912804F8
:103BA000909129048850974051F410922904109262
:103BB000280481E00E94491A0E94341AFFCF089518
:103BC000AA1BBB1B51E107C0AA1FBB1FA617B70743
:103BD00010F0A61BB70B881F991F5A95A9F780955F
:103BE0009095BC01CD01089597FB092E05260ED0B6
:103BF00057FD04D033D00AD0001C38F450954095BE
:103C0000309521953F4F4F4F5F4F0895F6F79095B0
:103C10008095709561957F4F8F4F9F4F0895629F5C
:103C2000D001739FF001829FE00DF11D649FE00DB4
:103C3000F11D929FF00D839FF00D749FF00D659F15
:103C4000F00D9927729FB00DE11DF91F639FB00D14
:103C5000E11DF91FBD01CF0111240895A1E21A2E23
:103C6000AA1BBB1BFD010DC0AA1FBB1FEE1FFF1F20
:103C7000A217B307E407F50720F0A21BB30BE40B70
:103C8000F50B661F771F881F991F1A9469F76095B7
:103C90007095809590959B01AC01BD01CF01089571
:103CA0002F923F924F925F926F927F928F929F924C
:103CB000AF92BF92CF92DF92EF92FF920F931F933A
:103CC000CF93DF93CDB7DEB7CA1BDB0B0FB6F894EB
:103CD000DEBF0FBECDBF09942A88398848885F842B
:103CE0006E847D848C849B84AA84B984C884DF809C
:103CF000EE80FD800C811B81AA81B981CE0FD11D80
:103D00000FB6F894DEBF0FBECDBFED010895FB01E5
:103D1000DC018D91019080190110D9F3990B089560
:043D2000F894FFCF45
:103D24000A2053656E6420416E797468696E672059
:103D3400746F205374617274000A20506C6561734F
:103D44006520456E74657220796F75722049443A16
:103D5400000A20506C6561736520456E746572209D
:103D6400796F75722050617373776F72643A00488B
:103D74006920000A20506C6561736520456E746586
:103D84007220596F7572204F726465723A004C65E7
:103D9400644F6E41000A20526F6F6D41204C656480
:103DA400206973204F4E000A20506C6561736520B2
:103DB400456E7465722050726F706572204F726424
:103DC4006572004C65644F666641000A20526F6F4D
:103DD4006D41204C6564206973204F6666004C6514
:103DE400644F6E42000A20526F6F6D42204C65642E
:103DF400206973204F4E004C65644F666642000A8A
:103E040020526F6F6D42204C6564206973204F66A9
:103E140066004F70656E000A20446F6F72206973EC
:103E2400204F70656E004C6F636B000A20446F6F07
:103E34007220697320636C6F73656400506F7765DB
:103E440072536176654D6F6465000A20456E746532
:103E540072696E6720706F77657220736176652072
:103E64006D6F646520000A2054686520737973744B
:103E7400656D20697320696E20706F776572207399
:103E8400617665206D6F646520000A2054686520A2
:103E940073797374656D20616C72656164792069EE
:103EA4006E20706F7765722073617665206D6F6424
:103EB4006520004C6F674F7574000A20476F6F646C
:103EC40042796520000A20285E5E29000A20577284
:103ED4006F6E672055736572206F72205061737323
:103EE40020506C6561736520547279204167616963
:103EF4006E000A206E6F206D6F72652074726965A2
:103F040073006F6D61720000000000006162646FF5
:103F14000000000000006D65646F000000000000F8
:103F2400746172656B000000000063726F6373005C
:103F34000000000074656D73616800000000746522
:103F44006D6F00000000000074616D736F68000005
:103F540000006C61636F7374000000003230313113
:103F6400000000000000303130320000000000008A
:103F740030313232000000000000303632330000AD
:103F840000000000313233340000000000003433FC
:103F940032310000000000003536373800000000E0
:103FA4000000383736350000000000003039303961
:103FB400000000000000393039300000000000002B
:103FC40000010202030303030404040404040404BC
:103FD400050505050505050505050505050505058D
:103FE400060606060606060606060606060606066D
:103FF400060606060606060606060606060606065D
:10400400070707070707070707070707070707073C
:10401400070707070707070707070707070707072C
:10402400070707070707070707070707070707071C
:10403400070707070707070707070707070707070C
:1040440008080808080808080808080808080808EC
:1040540008080808080808080808080808080808DC
:1040640008080808080808080808080808080808CC
:1040740008080808080808080808080808080808BC
:1040840008080808080808080808080808080808AC
:10409400080808080808080808080808080808089C
:1040A400080808080808080808080808080808088C
:1040B400080808080808080808080808080808087C
:0A40C40001000600000000010000EA
:00000001FF
